:100000000C9434000C9451000C9451000C94510049
:100010000C9451000C9451000C9451000C9451001C
:100020000C9451000C9451000C9451000C9451000C
:100030000C9451000C9451000C9451000C945100FC
:100040000C9453000C9451000C9451000C945100EA
:100050000C9451000C9451000C9451000C945100DC
:100060000C9451000C94510011241FBECFEFD8E026
:10007000DEBFCDBF11E0A0E0B1E0E0EFF2E002C0F2
:1000800005900D92AC30B107D9F721E0ACE0B1E0BA
:1000900001C01D92A531B207E1F70E949D000C94AA
:1000A00076010C9400001F920F920FB60F9211244C
:1000B0002F933F938F939F93AF93BF9380911101A1
:1000C00090911201A0911301B0911401309110018F
:1000D00023E0230F2D3758F50196A11DB11D209364
:1000E00010018093110190931201A0931301B0931A
:1000F000140180910C0190910D01A0910E01B0911D
:100100000F010196A11DB11D80930C0190930D016B
:10011000A0930E01B0930F01BF91AF919F918F916A
:100120003F912F910F900FBE0F901F90189526E8CA
:10013000230F0296A11DB11DD2CFCF93DF93CDB770
:10014000DEB72B970FB6F894DEBF0FBECDBF789405
:1001500084B5826084BD84B5816084BD85B58260CC
:1001600085BD85B5816085BD80916E00816080937D
:100170006E001092810080918100826080938100E6
:1001800080918100816080938100809180008160F6
:10019000809380008091B10084608093B100809151
:1001A000B00081608093B00080917A008460809379
:1001B0007A0080917A00826080937A0080917A0040
:1001C000816080937A0080917A00806880937A00C1
:1001D0001092C100249A209A219A259A389A399A25
:1001E0003A9A289829982D984098419842988AE000
:1001F000C82ED12CBB24B39492E0A92E20E0E22E8D
:1002000020E0F22E23E030E002E016E18BE0E0E0B7
:10021000F1E0DE01119601900D928A95E1F7C80197
:10022000B6010E946201E1E0F0E0EC0FFD1FE80F73
:10023000F91F608190E080E070E0AB01082E02C001
:10024000559547950A94E2F740FF19C02C9A45B19D
:100250004B2545B945B14B2545B9019688309105E7
:1002600061F72230310589F02330310551F021301A
:10027000310529F540982D9A429A419A0AC02C9846
:10028000E6CF42982D9A409AF8CF41982D9A409AFD
:10029000429A85B18A2585B985B18A2585B9C80173
:1002A000B6010E9462018B012150310908F0AECFE6
:1002B000E114F10409F4A6CF0E940000A3CF2D9809
:1002C000429AE1CFAA1BBB1B51E107C0AA1FBB1F6B
:1002D000A617B70710F0A61BB70B881F991F5A95D2
:1002E000A9F780959095BC01CD010895F894FFCFB2
:0C02F000FC60DAF266B6BFE0FFF600002A
:00000001FF
