:100000000C9463000C94B0020C948F020C948B003F
:100010000C948B000C948B000C948B000C948B0034
:100020000C948B000C948B000C948B000C948B0024
:100030000C948B000C948B000C948B000C948B0014
:100040000C9445020C948B000C948B000C948B0048
:100050000C948B000C948B000C948B000C948B00F4
:100060000C948B000C948B000000000024002700EF
:100070002A0000000000250028002B0000000000DE
:1000800023002600290004040404040404040202DA
:100090000202020203030303030301020408102007
:1000A0004080010204081020010204081020000012
:1000B0000008000201000003040700000000000027
:1000C00000006904A80411241FBECFEFD8E0DEBFF2
:1000D000CDBF22E0AAE8B1E001C01D92A933B2076A
:1000E000E1F711E0A0E0B1E0E4E5FEE002C0059038
:1000F0000D92AA38B107D9F710E0C2E6D0E004C0EB
:100100002197FE010E941C05C136D107C9F70E9444
:10011000D1020C941D070C940000833081F028F468
:10012000813099F08230A9F008958730A9F08830A5
:10013000C9F08430B1F4809180008F7D03C080913C
:1001400080008F7780938000089584B58F7784BD79
:10015000089584B58F7DFBCF8091B0008F77809319
:10016000B00008958091B0008F7DF9CF1F93CF9399
:10017000DF93282F30E0F901E255FF4F8491F90118
:10018000E656FF4FD491F901EA57FF4FC491CC23B3
:10019000A9F0162F81110E948D00EC2FF0E0EE0FD8
:1001A000FF1FEE58FF4FA591B4918FB7F894EC91D3
:1001B000111108C0D095DE23DC938FBFDF91CF9162
:1001C0001F910895DE2BF8CFCF93DF93C8E9D1E0DC
:1001D00061E08E810E94B60061E08F810E94B600CE
:1001E00083E090E00197F1F760E08F81DF91CF919C
:1001F0000C94B600CF93DF93C8E9D1E060E08E8124
:100200000E94B60060E08F810E94B60061E08E819E
:100210000E94B60083E090E00197F1F761E08F81E2
:10022000DF91CF910C94B600CF93DF9390E0FC0167
:10023000E656FF4F24918A579F4FFC0184918823F3
:10024000D1F090E0880F991FFC01E859FF4FA5916C
:10025000B491FC01EE58FF4FC591D49161110EC0CD
:100260009FB7F8948C91E22FE0958E238C93288190
:10027000E223E8839FBFDF91CF9108958FB7F89471
:10028000EC91E22BEC938FBFF6CF0F931F93CF939C
:10029000DF93D82FC8E003E010E060E080919E017A
:1002A0000E94B6006D2F617080919F010E94B60080
:1002B000C8010197F1F761E080919E010E94B600AC
:1002C000C8010197F1F7D695C15039F760E08091E8
:1002D0009E010E94B60061E080919F010E94B600DD
:1002E00061E080919E010E94B60060E080919F01D4
:1002F0000E94140120919F0130E0F901E255FF4F67
:100300008491F901E656FF4FD491F901EA57FF4F66
:10031000C491CC2339F181110E948D00EC2FF0E0C3
:10032000EE0FFF1FE458FF4FA591B491EC91ED2320
:10033000C1E009F4C0E0C1110AC060E080919F01F2
:100340000E94140160E080919F010E94B60061E06C
:1003500080919F010E9414018C2FDF91CF911F91FA
:100360000F910895C0E0E9CFFC0180819181009751
:1003700011F00C94BE0508950F931F93CF93DF9354
:10038000EC0188819981009759F02A813B812617D9
:10039000370730F081E0DF91CF911F910F910895E1
:1003A0008B016F5F7F4F0E944706009759F099833A
:1003B00088831B830A832C813D81232B59F7FC0101
:1003C0001082E8CF80E0E7CFEF92FF920F931F9368
:1003D000CF93DF936115710541F480E0DF91CF91F8
:1003E0001F910F91FF90EF90089541155105B1F0C5
:1003F0007B01EC010C811D81040F151FB8010E94C7
:10040000BC01882351F3288139818C819D81B701FA
:10041000820F931F0E9416071D830C8381E0DECF9D
:10042000EF92FF920F931F93CF93DF93EC017B0129
:100430008A01BA010E94BC0128813981811114C04E
:100440002115310519F0C9010E94BE0519821882D3
:100450001D821C821B821A82CE01DF91CF911F91D7
:100460000F91FF90EF9008951D830C83B701C90190
:100470000E941607F1CFFB0101900020E9F73197A8
:10048000AF01461B570B0C9410021F920F920FB630
:100490000F9211242F933F938F939F93AF93BF930A
:1004A0008091940190919501A0919601B09197014E
:1004B0003091930123E0230F2D3758F50196A11DAC
:1004C000B11D209393018093940190939501A09383
:1004D0009601B093970180918F0190919001A09126
:1004E0009101B09192010196A11DB11D80938F01E0
:1004F00090939001A0939101B0939201BF91AF911D
:100500009F918F913F912F910F900FBE0F901F9051
:10051000189526E8230F0296A11DB11DD2CF1F9278
:100520000F920FB60F9211248F939F9380918D019C
:10053000882391F08091000190910101019790939F
:1005400001018093000110928D019F918F910F9076
:100550000FBE0F901F90189581E080938C01F5CF0E
:100560001F920F920FB60F9211248F939F93809139
:100570008C01882391F080910001909101010196F6
:10058000909301018093000110928C019F918F91B3
:100590000F900FBE0F901F90189581E080938D01F2
:1005A000F5CFCF93DF93CDB7DEB76A970FB6F89448
:1005B000DEBF0FBECDBF789484B5826084BD84B5A4
:1005C000816084BD85B5826085BD85B5816085BD4E
:1005D00080916E00816080936E0010928100809106
:1005E000810082608093810080918100816080938E
:1005F0008100809180008160809380008091B100B3
:1006000084608093B1008091B00081608093B000DD
:1006100080917A00846080937A0080917A00826071
:1006200080937A0080917A00816080937A00809133
:100630007A00806880937A001092C100E89AE99A63
:100640005B9A5A9A809169008260809369008091D8
:100650006900886080936900789461E080919E01D0
:100660000E94140161E080919F010E9414010E9488
:10067000E40084E40E9445010E94FA000E94E40024
:1006800086EC0E9445010E94FA000E94E40080E886
:100690000E9445010E94FA0000E010E01C8A1B8ABB
:1006A0001E8A1D8A188E1F8A4AE0BE016F5F7F4F27
:1006B00082ED94E00E94B004BE016F5F7F4FCE01D7
:1006C00043960E943B02CF88D88C80913102909152
:1006D0003202EB88FC88C816D906C9F460912D0255
:1006E00070912E02E114F10409F4DEC06115710568
:1006F00051F4C114D10409F4E1C0F701808190E004
:10070000892B49F4DBC0C7010E940D07F9CFE11422
:10071000F10409F44AC0A601B7018DE292E00E94FB
:1007200010021A8219821C821B821E821D8250E0D6
:1007300040E068E871E0CE0101960E94100268E88E
:1007400071E0CE0101960E943B024F89588D6B8962
:100750007C89CE0101960E94E40168E871E088E995
:1007600091E00E943B02F12CE12C8D819E81E816E4
:10077000F90608F050C089819A81009759F18E0DD1
:100780009F1DDC01EC91E7FF26C020E0298F1A8E27
:1007900041E050E0BE01675E7F4F88E991E00E9432
:1007A000E401BFEFEB1AFB0AE0CF80912D0290919C
:1007B0002E02009711F00E94BE0510922E02109298
:1007C0002D021092320210923102109230021092D9
:1007D0002F02A7CFE0E00E2E000CFF0BE856FE4FD5
:1007E0002589203899F680919C0190919D01009770
:1007F00069F2E0919801F0919901309741F41092DB
:100800008E01EEE8F1E0808180688083CACF019795
:10081000E80FF91FF8CFE090A30180919C0190911F
:100820009D01F12C8E159F0508F47C01C090980164
:10083000D09099019090A0010E94E40080E40E9471
:1008400045010E94FA000E94E40080EC0E944501EC
:100850005601D12CC12CEC14FD04C1F0F50181919D
:100860005F019091A20191110AC02091A10130E095
:100870000C2C02C0369527950A94E2F720FD80687B
:100880000E944501FFEFCF1ADF0AE5CF0E94FA0070
:100890000E94E400892D0E9445010E94FA00CE01C9
:1008A00001960E94B4010AC06115710539F0C114A6
:1008B000D10421F0DB018C91811129CFCE01439627
:1008C0000E94B4010115110509F4E8CE0E94000050
:1008D000E5CECF93DF93C8E9D1E0198218821B825D
:1008E0001A821D821C8250E040E068E871E0CE016F
:1008F0000E94100283E08E8384E08F8398E89887BB
:100900008B871C8A80E8E8E0F1E0ADEAB1E0019075
:100910000D928A95E1F710922E0210922D021092FC
:10092000300210922F02109232021092310250E0E7
:1009300040E068E871E08DE292E00E94100284E0FD
:1009400090E09093340280933302DF91CF91089529
:100950008DE292E00E94B40188E991E00C94B40128
:10096000BB274A3031F4992322F4BDE2909581955A
:100970009F4F0C94BC04BB27FB015527AA27880F67
:10098000991FAA1FA41710F0A41B83955051B9F703
:10099000A05DAA3308F0A95DA193009779F7B11182
:1009A000B1931192CB010C94D504DC01FC01672FAB
:1009B00071917723E1F7329704C07C916D93708336
:1009C0006291AE17BF07C8F308952F923F924F92DE
:1009D0005F926F927F928F929F92AF92BF92CF92CF
:1009E000DF92EF92FF920F931F93CF93DF93CDB7D8
:1009F000DEB7CA1BDB0B0FB6F894DEBF0FBECDBF50
:100A000009942A88398848885F846E847D848C8420
:100A10009B84AA84B984C884DF80EE80FD800C8129
:100A20001B81AA81B981CE0FD11D0FB6F894DEBF0C
:100A30000FBECDBFED010895EE0FFF1F0590F4919D
:100A4000E02D09940F931F93CF93DF93823091058C
:100A500010F482E090E0E0913702F091380230E04B
:100A600020E0B0E0A0E0309799F42115310509F4B9
:100A70004AC0281B390B24303105D8F58A819B8167
:100A80006115710589F1FB0193838283FE0111C019
:100A9000408151810281138148175907E0F04817BE
:100AA000590799F4109761F012960C9312971396C8
:100AB0001C933296CF01DF91CF911F910F91089532
:100AC0000093370210933802F4CF2115310551F00D
:100AD0004217530738F0A901DB019A01BD01DF017C
:100AE000F801C1CFEF01F9CF90933802809337021C
:100AF000CDCFFE01E20FF31F819391932250310974
:100B000039832883D7CF2091350230913602232BA9
:100B100041F4209104013091050130933602209375
:100B2000350220910201309103012115310541F474
:100B30002DB73EB74091060150910701241B350B9C
:100B4000E0913502F0913602E217F307A0F42E1B74
:100B50003F0B2817390778F0AC014E5F5F4F241721
:100B6000350748F04E0F5F1F509336024093350211
:100B7000819391939FCFF0E0E0E09CCFCF93DF9300
:100B80000097E9F0FC01329713821282A09137029C
:100B9000B0913802ED0130E020E01097A1F42081FF
:100BA0003181820F931F2091350230913602281730
:100BB000390709F061C0F0933602E0933502DF9106
:100BC000CF910895EA01CE17DF07E8F54A815B81EE
:100BD0009E0141155105B1F7E901FB83EA83499173
:100BE0005991C40FD51FEC17FD0761F480819181E5
:100BF0000296840F951FE9019983888382819381EE
:100C00009B838A83F0E0E0E012968D919C9113978C
:100C10000097B9F52D913C911197CD010296820F65
:100C2000931F20913502309136022817390739F683
:100C3000309751F51092380210923702B093360275
:100C4000A0933502BCCFD383C28340815181840FEE
:100C5000951FC817D90761F44E5F5F4F888199814E
:100C6000480F591F518340838A819B8193838283DC
:100C70002115310509F0B0CFF0933802E093370227
:100C80009ECFFD01DC01C0CF13821282D7CFB0E02E
:100C9000A0E0EDE4F6E00C94E7048C01009751F439
:100CA000CB010E9422058C01C801CDB7DEB7E0E17F
:100CB0000C940305FC01E60FF71F9C01225031093B
:100CC000E217F30708F49DC0D901CD91DC9111978B
:100CD000C617D70798F0C530D10530F3CE01049779
:100CE0008617970708F3C61BD70B2297C193D1939A
:100CF0006D937C93CF010E94BE05D6CF5B01AC1AE9
:100D0000BD0A4C018C0E9D1EA0913702B091380295
:100D1000512C412CF12CE12C109731F580913502AA
:100D2000909136028815990509F05CC04616570661
:100D300008F058C08091020190910301009741F49E
:100D40008DB79EB74091060150910701841B950B0A
:100D5000E817F90708F055C0F0933602E093350222
:100D6000F90171836083A0CF8D919C9111971296A8
:100D70006C90129713967C901397A815B90559F5A6
:100D80006C0142E0C40ED11CCA14DB0420F1AC019A
:100D90004A195B09DA011296159780F06282738214
:100DA00051834083D9016D937C93E114F10471F078
:100DB000D7011396FC93EE93129776CF22968C0F61
:100DC0009D1FF90191838083F301EFCFF0933802E7
:100DD000E093370269CF4816590608F42C017D01CB
:100DE000D3019ACFCB010E9422057C01009749F0E4
:100DF000AE01B8010E940407C8010E94BE05870128
:100E000053CF10E000E050CFFB01DC0102C00190A5
:100E10000D9241505040D8F70895FB01DC018D91AF
:100E2000019080190110D9F3990B0895FB01DC01A1
:100E300001900D920020E1F7089510E0C2E6D0E0A5
:100E400004C0FE010E941C052196C336D107C9F7D4
:040E5000F894FFCF44
:100E54007C00000039028000000000000000000057
:100E6400000000000000000000000000000000007E
:100E74000000000000000000000022006D000020BF
:100E8400390F0000104080523F065B4F666D7D07AE
:100E94007F6F00000048005300777C395E79713D14
:100EA40076301E003800543F7367506D783E000062
:100EB400006E5B3964000F0820777C585E79713DC1
:100EC40074041E003800545C7367506D783E000053
:0A0ED400006E5B39300F4000000093
:00000001FF
