:100000000C9434000C94BE000C949D000C94510090
:100010000C9451000C9451000C9451000C9451001C
:100020000C9451000C9451000C9451000C9451000C
:100030000C9451000C9451000C9451000C945100FC
:100040000C9453000C9451000C9451000C945100EA
:100050000C9451000C9451000C9451000C945100DC
:100060000C9451000C94510011241FBECFEFD8E026
:10007000DEBFCDBF11E0A0E0B1E0EEEAF3E002C0E8
:1000800005900D92AE30B107D9F721E0AEE0B1E0B6
:1000900001C01D92AB31B207E1F70E94DF000C9462
:1000A000D5010C9400001F920F920FB60F921124ED
:1000B0002F933F938F939F93AF93BF93809117019B
:1000C00090911801A0911901B0911A013091160177
:1000D00023E0230F2D3758F50196A11DB11D209364
:1000E00016018093170190931801A0931901B09302
:1000F0001A018091120190911301A0911401B09105
:1001000015010196A11DB11D809312019093130159
:10011000A0931401B0931501BF91AF919F918F915E
:100120003F912F910F900FBE0F901F90189526E8CA
:10013000230F0296A11DB11DD2CF1F920F920FB6B1
:100140000F9211248F939F9380911101882391F036
:10015000809100019091010101979093010180939A
:100160000001109211019F918F910F900FBE0F907F
:100170001F90189581E080931001F5CF1F920F9288
:100180000FB60F9211248F939F93809110018823B3
:1001900091F08091000190910101019690930101ED
:1001A00080930001109210019F918F910F900FBECC
:1001B0000F901F90189581E080931101F5CFCF9398
:1001C000DF93CDB7DEB72B970FB6F894DEBF0FBE27
:1001D000CDBF789484B5826084BD84B5816084BDD0
:1001E00085B5826085BD85B5816085BD80916E00D5
:1001F000816080936E001092810080918100826006
:100200008093810080918100816080938100809142
:1002100080008160809380008091B1008460809331
:10022000B1008091B00081608093B00080917A002D
:10023000846080937A0080917A00826080937A0053
:1002400080917A00816080937A0080917A00806842
:1002500080937A001092C100E89AE99A5B9A5A9AC0
:100260008091690082608093690080916900886054
:10027000809369007894249A209A219A259A389A32
:10028000399A3A9A289829982D98409841984298F6
:100290008AE0C82ED12CBB24B39492E0A92E20E092
:1002A000E22E20E0F22E009100011091010123E0E6
:1002B00030E00115110509F45DC08BE0E2E0F1E0EA
:1002C000DE01119601900D928A95E1F7C801B60101
:1002D0000E94C101E1E0F0E0EC0FFD1FE80FF91F03
:1002E000608190E080E070E0AB01082E02C055957F
:1002F00047950A94E2F740FF17C02C9A45B14B2569
:1003000045B945B14B2545B901968830910561F74E
:100310002130310539F154F42115310541F12D9881
:1003200040984198429810C02C98E8CF223031056F
:1003300039F02330310599F742982D9A409A15C02B
:1003400041982D9A409A429A85B18A2585B985B1FE
:100350008A2585B9C801B6010E94C1018B012150CF
:100360003109A7CF40982D9A429A419AEDCF2D9806
:10037000429AE4CFE114F10409F495CF0E94000001
:1003800092CFAA1BBB1B51E107C0AA1FBB1FA61718
:10039000B70710F0A61BB70B881F991F5A95A9F72E
:0E03A00080959095BC01CD010895F894FFCF93
:0E03AE007C00FC60DAF266B6BFE0FFF60000ED
:00000001FF
