:100000000C9463000C948B000C948B000C948B006C
:100010000C948B000C948B000C948B000C948B0034
:100020000C948B000C948B000C948B000C948B0024
:100030000C948B000C948B000C948B000C948B0014
:100040000C947C030C948B000C948B000C948B0010
:100050000C948B000C948B000C948B000C948B00F4
:100060000C948B000C948B000000000024002700EF
:100070002A0000000000250028002B0000000000DE
:1000800023002600290004040404040404040202DA
:100090000202020203030303030301020408102007
:1000A0004080010204081020010204081020000012
:1000B0000008000201000003040700000000000027
:1000C00000008604BD0411241FBECFEFD8E0DEBFC0
:1000D000CDBF22E0A8E8B1E001C01D92A333B20772
:1000E000E1F711E0A0E0B1E0E8E6FEE002C0059033
:1000F0000D92A838B107D9F710E0C2E6D0E004C0ED
:100100002197FE010E942605C136D107C9F70E943A
:10011000C6030C9427070C940000833081F028F468
:10012000813099F08230A9F008958730A9F08830A5
:10013000C9F08430B1F4809180008F7D03C080913C
:1001400080008F7780938000089584B58F7784BD79
:10015000089584B58F7DFBCF8091B0008F77809319
:10016000B00008958091B0008F7DF9CF1F93CF9399
:10017000DF93282F30E0F901E255FF4F8491F90118
:10018000E656FF4FD491F901EA57FF4FC491CC23B3
:10019000A9F0162F81110E948D00EC2FF0E0EE0FD8
:1001A000FF1FEE58FF4FA591B4918FB7F894EC91D3
:1001B000111108C0D095DE23DC938FBFDF91CF9162
:1001C0001F910895DE2BF8CFCF93DF93C2E9D1E0E2
:1001D00061E08E810E94B60061E08F810E94B600CE
:1001E00083E090E00197F1F760E08F81DF91CF919C
:1001F0000C94B600CF93DF93C2E9D1E060E08E812A
:100200000E94B60060E08F810E94B60061E08E819E
:100210000E94B60083E090E00197F1F761E08F81E2
:10022000DF91CF910C94B600CF93DF9390E0FC0167
:10023000E656FF4F24918A579F4FFC0184918823F3
:10024000D1F090E0880F991FFC01E859FF4FA5916C
:10025000B491FC01EE58FF4FC591D49161110EC0CD
:100260009FB7F8948C91E22FE0958E238C93288190
:10027000E223E8839FBFDF91CF9108958FB7F89471
:10028000EC91E22BEC938FBFF6CF0F931F93CF939C
:10029000DF93D82FC8E003E010E060E08091980180
:1002A0000E94B6006D2F6170809199010E94B60086
:1002B000C8010197F1F761E0809198010E94B600B2
:1002C000C8010197F1F7D695C15039F760E08091E8
:1002D00098010E94B60061E0809199010E94B600E9
:1002E00061E0809198010E94B60060E080919901E0
:1002F0000E9414012091990130E0F901E255FF4F6D
:100300008491F901E656FF4FD491F901EA57FF4F66
:10031000C491CC2339F181110E948D00EC2FF0E0C3
:10032000EE0FFF1FE458FF4FA591B491EC91ED2320
:10033000C1E009F4C0E0C1110AC060E080919901F8
:100340000E94140160E0809199010E94B60061E072
:10035000809199010E9414018C2FDF91CF911F9100
:100360000F910895C0E0E9CFFC0180819181009751
:1003700011F00C94C80508950F931F93CF93DF934A
:10038000EC0188819981009759F02A813B812617D9
:10039000370730F081E0DF91CF911F910F910895E1
:1003A0008B016F5F7F4F0E945106009759F0998330
:1003B00088831B830A832C813D81232B59F7FC0101
:1003C0001082E8CF80E0E7CFEF92FF920F931F9368
:1003D000CF93DF936115710541F480E0DF91CF91F8
:1003E0001F910F91FF90EF90089541155105B1F0C5
:1003F0007B01EC010C811D81040F151FB8010E94C7
:10040000BC01882351F3288139818C819D81B701FA
:10041000820F931F0E9420071D830C8381E0DECF93
:10042000EF92FF920F931F93CF93DF93EC017B0129
:100430008A01BA010E94BC0128813981811114C04E
:100440002115310519F0C9010E94C80519821882C9
:100450001D821C821B821A82CE01DF91CF911F91D7
:100460000F91FF90EF9008951D830C83B701C90190
:100470000E942007F1CF50E040E066E871E00C9464
:100480001002FB0101900020E9F73197AF01461BF4
:10049000570B0C941002BF92CF92DF92EF92FF9213
:1004A0000F931F93CF93DF93CDB7DEB761970FB64E
:1004B000F894DEBF0FBECDBF1B861A861D861C8634
:1004C0001F861E864AE0BE016F5F7F4F90E00E944C
:1004D000C504BE016F5F7F4FCE010A960E944102A4
:1004E000EE84FF8480912B0290912C020A851B855B
:1004F000E816F906C9F460912702709128020115E7
:10050000110509F4D9C06115710551F4E114F10424
:1005100009F4DCC0F801808190E0892B49F4D6C051
:10052000C8010E941707F9CF0115110509F445C04C
:10053000A701B80187E292E00E9410021A82198294
:100540001C821B821E821D82CE0101960E943B02EC
:1005500066E871E0CE0101960E9441024E855F85FA
:100560006A857B85CE0101960E94E40166E871E010
:1005700082E991E00E94410210E000E08D819E81BD
:100580000817190708F04FC089819A81009751F127
:10059000800F911FDC01EC91E7FF25C020E0288B44
:1005A000198A41E050E0BE01605F7F4F82E991E02F
:1005B0000E94E4010F5F1F4FE1CF809127029091CD
:1005C0002802009711F00E94C8051092280210928C
:1005D000270210922C0210922B0210922A021092E3
:1005E0002902ACCFE0E00E2E000CFF0BEE56FE4FC2
:1005F00025892038A1F68091960190919701009766
:1006000071F2E0919201F0919301309741F41092D0
:100610009101E1E9F1E0808180688083CBCF01978F
:10062000E80FF91FF8CF00919D01809196019091FC
:10063000970110E08017910708F48C01C090920197
:10064000D0909301B0909A010E94E40080E40E944F
:1006500045010E94FA000E94E40080EC0E944501DE
:100660007601D12CC12C0C151D05C1F0F70181912B
:100670007F0190919C0191110AC020919B0130E073
:100680000C2C02C0369527950A94E2F720FD80686D
:100690000E944501FFEFCF1ADF0AE5CF0E94FA0062
:1006A0000E94E4008B2D0E9445010E94FA00CE01B9
:1006B00001960E94B4010AC06115710539F0E11478
:1006C000F10421F0DB018C9181112ECFCE010A962D
:1006D0000E94B40182E991E061960FB6F894DEBF02
:1006E0000FBECDBFDF91CF911F910F91FF90EF9083
:1006F000DF90CF90BF9008951F920F920FB60F9288
:1007000011242F933F938F939F93AF93BF93809127
:100710008D0190918E01A0918F01B0919001309147
:100720008C0123E0230F2D3758F50196A11DB11D33
:1007300020938C0180938D0190938E01A0938F0163
:10074000B09390018091880190918901A0918A01D4
:10075000B0918B010196A11DB11D809388019093EA
:100760008901A0938A01B0938B01BF91AF919F91B2
:100770008F913F912F910F900FBE0F901F90189562
:1007800026E8230F0296A11DB11DD2CFCF93DF9390
:1007900000D01F92CDB7DEB7789484B5826084BD57
:1007A00084B5816084BD85B5826085BD85B5816075
:1007B00085BD80916E00816080936E0010928100F3
:1007C00080918100826080938100809181008160AE
:1007D000809381008091800081608093800080916F
:1007E000B10084608093B1008091B00081608093FB
:1007F000B00080917A00846080937A0080917A00C2
:10080000826080937A0080917A00816080937A0080
:1008100080917A00806880937A001092C100809164
:100820007C00806480937C0080917C008062809357
:100830007C0080917A00866080937A0080917A00B3
:10084000806880937A0061E0809198010E94140191
:1008500061E0809199010E9414010E94E40084E407
:100860000E9445010E94FA000E94E40086EC0E946A
:1008700045010E94FA000E94E40080E80E944501C0
:100880000E94FA0000E010E0FE01319695E08091B0
:100890007C00807F892B80937C0080917A0080642B
:1008A00080937A0080917A0086FDFCCF8091790058
:1008B00081939F5F983059F789810E944B022FEFF7
:1008C00089E698E1215080409040E1F700C00000A7
:1008D0008A810E944B022FEF89E698E121508040E7
:1008E0009040E1F700C000008B810E944B022FEF87
:1008F00089E698E1215080409040E1F700C0000077
:100900000115110509F20E940000BECFCF93DF93BD
:10091000C2E9D1E0198218821B821A821D821C82D0
:10092000CE010E943B0283E08E8384E08F8398E8AF
:1009300098878B871C8A80E8E6E0F1E0A7EAB1E0BF
:1009400001900D928A95E1F71092280210922702E9
:1009500010922A021092290210922C0210922B025D
:1009600087E292E00E943B0284E090E090932E02A6
:1009700080932D02DF91CF91089587E292E00E944B
:10098000B40182E991E00C94B401BB27FB01552727
:10099000AA27880F991FAA1FA41710F0A41B8395DC
:1009A0005051B9F7A05DAA3308F0A95DA193009753
:1009B00079F7B111B1931192CB010C94DF04DC01F2
:1009C000FC01672F71917723E1F7329704C07C9186
:1009D0006D9370836291AE17BF07C8F308952F928D
:1009E0003F924F925F926F927F928F929F92AF92BF
:1009F000BF92CF92DF92EF92FF920F931F93CF930C
:100A0000DF93CDB7DEB7CA1BDB0B0FB6F894DEBFA2
:100A10000FBECDBF09942A88398848885F846E84C8
:100A20007D848C849B84AA84B984C884DF80EE8012
:100A3000FD800C811B81AA81B981CE0FD11D0FB61B
:100A4000F894DEBF0FBECDBFED010895EE0FFF1F7E
:100A50000590F491E02D09940F931F93CF93DF93AA
:100A60008230910510F482E090E0E0913102F09143
:100A7000320230E020E0B0E0A0E0309799F4211598
:100A8000310509F44AC0281B390B24303105D8F54B
:100A90008A819B816115710589F1FB0193838283B2
:100AA000FE0111C04081518102811381481759070D
:100AB000E0F04817590799F4109761F012960C93DB
:100AC000129713961C933296CF01DF91CF911F910D
:100AD0000F9108950093310210933202F4CF211543
:100AE000310551F04217530738F0A901DB019A0193
:100AF000BD01DF01F801C1CFEF01F9CF90933202C0
:100B000080933102CDCFFE01E20FF31F81939193C9
:100B10002250310939832883D7CF20912F02309179
:100B20003002232B41F420910201309103013093D4
:100B3000300220932F0220910001309101012115F4
:100B4000310541F42DB73EB74091040150910501A4
:100B5000241B350BE0912F02F0913002E217F307CE
:100B6000A0F42E1B3F0B2817390778F0AC014E5F1D
:100B70005F4F2417350748F04E0F5F1F5093300228
:100B800040932F02819391939FCFF0E0E0E09CCFC0
:100B9000CF93DF930097E9F0FC0132971382128222
:100BA000A0913102B0913202ED0130E020E01097C7
:100BB000A1F420813181820F931F20912F02309167
:100BC00030022817390709F061C0F0933002E09332
:100BD0002F02DF91CF910895EA01CE17DF07E8F5E4
:100BE0004A815B819E0141155105B1F7E901FB8303
:100BF000EA8349915991C40FD51FEC17FD0761F4A1
:100C0000808191810296840F951FE90199838883E1
:100C1000828193819B838A83F0E0E0E012968D913C
:100C20009C9113970097B9F52D913C911197CD01A7
:100C30000296820F931F20912F02309130022817C5
:100C4000390739F6309751F510923202109231027D
:100C5000B0933002A0932F02BCCFD383C2834081D4
:100C60005181840F951FC817D90761F44E5F5F4FFC
:100C700088819981480F591F518340838A819B81C4
:100C8000938382832115310509F0B0CFF0933202AE
:100C9000E09331029ECFFD01DC01C0CF13821282AE
:100CA000D7CFB0E0A0E0E7E5F6E00C94F1048C01CA
:100CB000009751F4CB010E942C058C01C801CDB7DF
:100CC000DEB7E0E10C940D05FC01E60FF71F9C0177
:100CD00022503109E217F30708F49DC0D901CD91E4
:100CE000DC911197C617D70798F0C530D10530F3BE
:100CF000CE0104978617970708F3C61BD70B2297D8
:100D0000C193D1936D937C93CF010E94C805D6CF38
:100D10005B01AC1ABD0A4C018C0E9D1EA0913102E4
:100D2000B0913202512C412CF12CE12C109731F56D
:100D300080912F02909130028815990509F05CC0CE
:100D40004616570608F058C08091000190910101A5
:100D5000009741F48DB79EB7409104015091050171
:100D6000841B950BE817F90708F055C0F093300283
:100D7000E0932F02F90171836083A0CF8D919C9144
:100D8000119712966C90129713967C901397A81552
:100D9000B90559F56C0142E0C40ED11CCA14DB043C
:100DA00020F1AC014A195B09DA011296159780F01F
:100DB0006282738251834083D9016D937C93E114E5
:100DC000F10471F0D7011396FC93EE93129776CF4E
:100DD00022968C0F9D1FF90191838083F301EFCF41
:100DE000F0933202E093310269CF4816590608F4B5
:100DF0002C017D01D3019ACFCB010E942C057C01EF
:100E0000009749F0AE01B8010E940E07C8010E9488
:100E1000C805870153CF10E000E050CFFB01DC0193
:100E200002C001900D9241505040D8F70895FB0147
:100E3000DC018D91019080190110D9F3990B08956F
:100E4000FB01DC0101900D920020E1F7089510E014
:100E5000C2E6D0E004C0FE010E9426052196C336FA
:080E6000D107C9F7F894FFCF98
:100E680000003302800000000000000000000000C5
:100E7800000000000000000000000000000000006A
:100E8800000000000000000022006D000020390F63
:100E98000000104080523F065B4F666D7D077F6FF4
:100EA80000000048005300777C395E79713D763048
:100EB8001E003800543F7367506D783E0000006E86
:100EC8005B3964000F0820777C585E79713D7404A3
:100ED8001E003800545C7367506D783E0000006E49
:080EE8005B39300F40000000EF
:00000001FF
